{
  "_format": "hh-sol-artifact-1",
  "contractName": "ParlayCoreSimple",
  "sourceName": "contracts/contract/ParlayCoreSimple.sol",
  "abi": [
    {
      "inputs": [
        {
          "internalType": "address",
          "name": "_signer",
          "type": "address"
        },
        {
          "internalType": "uint256",
          "name": "_initialVirtualEtherBalance",
          "type": "uint256"
        },
        {
          "internalType": "uint256",
          "name": "_initialTokensForUniswapBalance",
          "type": "uint256"
        },
        {
          "internalType": "uint256",
          "name": "_initialTokensForBondingCurveBalance",
          "type": "uint256"
        },
        {
          "internalType": "address",
          "name": "_uniswapV2Router02",
          "type": "address"
        },
        {
          "internalType": "uint256",
          "name": "_tradingFeeBasisPoints",
          "type": "uint256"
        },
        {
          "internalType": "bytes32",
          "name": "_createTypeHash",
          "type": "bytes32"
        },
        {
          "internalType": "bytes32",
          "name": "_initCodePairHash",
          "type": "bytes32"
        }
      ],
      "stateMutability": "nonpayable",
      "type": "constructor"
    },
    {
      "inputs": [],
      "name": "ECDSAInvalidSignature",
      "type": "error"
    },
    {
      "inputs": [
        {
          "internalType": "uint256",
          "name": "length",
          "type": "uint256"
        }
      ],
      "name": "ECDSAInvalidSignatureLength",
      "type": "error"
    },
    {
      "inputs": [
        {
          "internalType": "bytes32",
          "name": "s",
          "type": "bytes32"
        }
      ],
      "name": "ECDSAInvalidSignatureS",
      "type": "error"
    },
    {
      "inputs": [],
      "name": "InvalidShortString",
      "type": "error"
    },
    {
      "inputs": [
        {
          "internalType": "address",
          "name": "owner",
          "type": "address"
        }
      ],
      "name": "OwnableInvalidOwner",
      "type": "error"
    },
    {
      "inputs": [
        {
          "internalType": "address",
          "name": "account",
          "type": "address"
        }
      ],
      "name": "OwnableUnauthorizedAccount",
      "type": "error"
    },
    {
      "inputs": [],
      "name": "ReentrancyGuardReentrantCall",
      "type": "error"
    },
    {
      "inputs": [
        {
          "internalType": "string",
          "name": "str",
          "type": "string"
        }
      ],
      "name": "StringTooLong",
      "type": "error"
    },
    {
      "anonymous": false,
      "inputs": [
        {
          "indexed": true,
          "internalType": "address",
          "name": "tokenAddress",
          "type": "address"
        },
        {
          "indexed": true,
          "internalType": "address",
          "name": "creator",
          "type": "address"
        },
        {
          "indexed": false,
          "internalType": "uint256",
          "name": "amount",
          "type": "uint256"
        }
      ],
      "name": "CreatorTokensLocked",
      "type": "event"
    },
    {
      "anonymous": false,
      "inputs": [
        {
          "indexed": true,
          "internalType": "address",
          "name": "tokenAddress",
          "type": "address"
        },
        {
          "indexed": true,
          "internalType": "address",
          "name": "creator",
          "type": "address"
        },
        {
          "indexed": false,
          "internalType": "uint256",
          "name": "amount",
          "type": "uint256"
        }
      ],
      "name": "CreatorTokensUnlocked",
      "type": "event"
    },
    {
      "anonymous": false,
      "inputs": [],
      "name": "EIP712DomainChanged",
      "type": "event"
    },
    {
      "anonymous": false,
      "inputs": [
        {
          "indexed": false,
          "internalType": "uint256",
          "name": "etherFeeAmount",
          "type": "uint256"
        }
      ],
      "name": "EtherFeeCollected",
      "type": "event"
    },
    {
      "anonymous": false,
      "inputs": [
        {
          "indexed": true,
          "internalType": "uint256",
          "name": "amount",
          "type": "uint256"
        }
      ],
      "name": "FeesWithdrawn",
      "type": "event"
    },
    {
      "anonymous": false,
      "inputs": [
        {
          "indexed": true,
          "internalType": "address",
          "name": "previousOwner",
          "type": "address"
        },
        {
          "indexed": true,
          "internalType": "address",
          "name": "newOwner",
          "type": "address"
        }
      ],
      "name": "OwnershipTransferred",
      "type": "event"
    },
    {
      "anonymous": false,
      "inputs": [
        {
          "indexed": true,
          "internalType": "address",
          "name": "oldSigner",
          "type": "address"
        },
        {
          "indexed": true,
          "internalType": "address",
          "name": "newSigner",
          "type": "address"
        }
      ],
      "name": "SignerChanged",
      "type": "event"
    },
    {
      "anonymous": false,
      "inputs": [
        {
          "indexed": true,
          "internalType": "bytes32",
          "name": "digest",
          "type": "bytes32"
        },
        {
          "indexed": true,
          "internalType": "address",
          "name": "token",
          "type": "address"
        },
        {
          "indexed": true,
          "internalType": "uint256",
          "name": "timestamp",
          "type": "uint256"
        },
        {
          "indexed": false,
          "internalType": "uint256",
          "name": "totalSupply",
          "type": "uint256"
        },
        {
          "indexed": false,
          "internalType": "uint256",
          "name": "initialVirtualEtherBalance",
          "type": "uint256"
        },
        {
          "indexed": false,
          "internalType": "uint256",
          "name": "initialTokensForUniswapBalance",
          "type": "uint256"
        },
        {
          "indexed": false,
          "internalType": "uint256",
          "name": "initialTokensForBondingCurveBalance",
          "type": "uint256"
        },
        {
          "indexed": false,
          "internalType": "address",
          "name": "uniswapV2Pair",
          "type": "address"
        }
      ],
      "name": "TokenCreated",
      "type": "event"
    },
    {
      "anonymous": false,
      "inputs": [
        {
          "indexed": false,
          "internalType": "bool",
          "name": "newState",
          "type": "bool"
        }
      ],
      "name": "TokenCreationEnabledToggled",
      "type": "event"
    },
    {
      "anonymous": false,
      "inputs": [
        {
          "indexed": true,
          "internalType": "uint256",
          "name": "initialVirtualEtherBalance",
          "type": "uint256"
        },
        {
          "indexed": true,
          "internalType": "uint256",
          "name": "initialTokensForUniswapBalance",
          "type": "uint256"
        },
        {
          "indexed": true,
          "internalType": "uint256",
          "name": "initialTokensForBondingCurveBalance",
          "type": "uint256"
        }
      ],
      "name": "TokenInitializerChanged",
      "type": "event"
    },
    {
      "anonymous": false,
      "inputs": [
        {
          "indexed": true,
          "internalType": "address",
          "name": "tokenAddress",
          "type": "address"
        }
      ],
      "name": "TokenSeeded",
      "type": "event"
    },
    {
      "anonymous": false,
      "inputs": [
        {
          "indexed": true,
          "internalType": "address",
          "name": "token",
          "type": "address"
        },
        {
          "indexed": true,
          "internalType": "address",
          "name": "user",
          "type": "address"
        },
        {
          "indexed": false,
          "internalType": "uint256",
          "name": "etherAmountIn",
          "type": "uint256"
        },
        {
          "indexed": false,
          "internalType": "uint256",
          "name": "etherAmountOut",
          "type": "uint256"
        },
        {
          "indexed": false,
          "internalType": "uint256",
          "name": "tokenAmountIn",
          "type": "uint256"
        },
        {
          "indexed": false,
          "internalType": "uint256",
          "name": "tokenAmountOut",
          "type": "uint256"
        },
        {
          "indexed": false,
          "internalType": "uint256",
          "name": "timestamp",
          "type": "uint256"
        },
        {
          "indexed": false,
          "internalType": "uint256",
          "name": "etherFeeAmount",
          "type": "uint256"
        }
      ],
      "name": "TradeExecuted",
      "type": "event"
    },
    {
      "anonymous": false,
      "inputs": [
        {
          "indexed": false,
          "internalType": "bool",
          "name": "newState",
          "type": "bool"
        }
      ],
      "name": "TradingEnabledToggled",
      "type": "event"
    },
    {
      "inputs": [],
      "name": "CREATE_TYPEHASH",
      "outputs": [
        {
          "internalType": "bytes32",
          "name": "",
          "type": "bytes32"
        }
      ],
      "stateMutability": "view",
      "type": "function"
    },
    {
      "inputs": [],
      "name": "DOMAIN_SEPARATOR",
      "outputs": [
        {
          "internalType": "bytes32",
          "name": "domainSeparator",
          "type": "bytes32"
        }
      ],
      "stateMutability": "view",
      "type": "function"
    },
    {
      "inputs": [],
      "name": "INIT_CODE_PAIR_HASH",
      "outputs": [
        {
          "internalType": "bytes32",
          "name": "",
          "type": "bytes32"
        }
      ],
      "stateMutability": "view",
      "type": "function"
    },
    {
      "inputs": [],
      "name": "burnAddress",
      "outputs": [
        {
          "internalType": "address",
          "name": "",
          "type": "address"
        }
      ],
      "stateMutability": "view",
      "type": "function"
    },
    {
      "inputs": [
        {
          "internalType": "string",
          "name": "name",
          "type": "string"
        },
        {
          "internalType": "string",
          "name": "symbol",
          "type": "string"
        },
        {
          "internalType": "uint256",
          "name": "deadline",
          "type": "uint256"
        },
        {
          "internalType": "uint256",
          "name": "etherFee",
          "type": "uint256"
        },
        {
          "internalType": "uint256",
          "name": "etherBuy",
          "type": "uint256"
        },
        {
          "internalType": "uint256",
          "name": "initialMaxWalletBalance",
          "type": "uint256"
        },
        {
          "internalType": "bool",
          "name": "isDevLockup",
          "type": "bool"
        },
        {
          "internalType": "uint8",
          "name": "v",
          "type": "uint8"
        },
        {
          "internalType": "bytes32",
          "name": "r",
          "type": "bytes32"
        },
        {
          "internalType": "bytes32",
          "name": "s",
          "type": "bytes32"
        }
      ],
      "name": "createToken",
      "outputs": [],
      "stateMutability": "payable",
      "type": "function"
    },
    {
      "inputs": [
        {
          "internalType": "address",
          "name": "",
          "type": "address"
        }
      ],
      "name": "creatorLocks",
      "outputs": [
        {
          "internalType": "uint256",
          "name": "amount",
          "type": "uint256"
        },
        {
          "internalType": "address",
          "name": "creator",
          "type": "address"
        }
      ],
      "stateMutability": "view",
      "type": "function"
    },
    {
      "inputs": [],
      "name": "eip712Domain",
      "outputs": [
        {
          "internalType": "bytes1",
          "name": "fields",
          "type": "bytes1"
        },
        {
          "internalType": "string",
          "name": "name",
          "type": "string"
        },
        {
          "internalType": "string",
          "name": "version",
          "type": "string"
        },
        {
          "internalType": "uint256",
          "name": "chainId",
          "type": "uint256"
        },
        {
          "internalType": "address",
          "name": "verifyingContract",
          "type": "address"
        },
        {
          "internalType": "bytes32",
          "name": "salt",
          "type": "bytes32"
        },
        {
          "internalType": "uint256[]",
          "name": "extensions",
          "type": "uint256[]"
        }
      ],
      "stateMutability": "view",
      "type": "function"
    },
    {
      "inputs": [],
      "name": "etherFeeBalance",
      "outputs": [
        {
          "internalType": "uint256",
          "name": "",
          "type": "uint256"
        }
      ],
      "stateMutability": "view",
      "type": "function"
    },
    {
      "inputs": [],
      "name": "flipTokenCreationEnabled",
      "outputs": [],
      "stateMutability": "nonpayable",
      "type": "function"
    },
    {
      "inputs": [],
      "name": "flipTradingEnabled",
      "outputs": [],
      "stateMutability": "nonpayable",
      "type": "function"
    },
    {
      "inputs": [
        {
          "internalType": "uint256",
          "name": "amountIn",
          "type": "uint256"
        },
        {
          "internalType": "uint256",
          "name": "reserveIn",
          "type": "uint256"
        },
        {
          "internalType": "uint256",
          "name": "reserveOut",
          "type": "uint256"
        }
      ],
      "name": "getAmountOut",
      "outputs": [
        {
          "internalType": "uint256",
          "name": "amountOut",
          "type": "uint256"
        }
      ],
      "stateMutability": "pure",
      "type": "function"
    },
    {
      "inputs": [
        {
          "components": [
            {
              "internalType": "string",
              "name": "name",
              "type": "string"
            },
            {
              "internalType": "string",
              "name": "symbol",
              "type": "string"
            },
            {
              "internalType": "uint256",
              "name": "deadline",
              "type": "uint256"
            },
            {
              "internalType": "address",
              "name": "creator",
              "type": "address"
            },
            {
              "internalType": "uint256",
              "name": "creatorSignatureNonce",
              "type": "uint256"
            },
            {
              "internalType": "uint256",
              "name": "etherFee",
              "type": "uint256"
            },
            {
              "internalType": "uint256",
              "name": "etherBuy",
              "type": "uint256"
            },
            {
              "internalType": "uint256",
              "name": "initialMaxWalletBalance",
              "type": "uint256"
            },
            {
              "internalType": "bool",
              "name": "isDevLockup",
              "type": "bool"
            }
          ],
          "internalType": "struct ParlayCoreSimple.CreateTokenRequest",
          "name": "_createTokenRequest",
          "type": "tuple"
        }
      ],
      "name": "getCreateTokenRequestTypedDataHash",
      "outputs": [
        {
          "internalType": "bytes32",
          "name": "typedDataHash",
          "type": "bytes32"
        }
      ],
      "stateMutability": "view",
      "type": "function"
    },
    {
      "inputs": [
        {
          "internalType": "address",
          "name": "tokenA",
          "type": "address"
        }
      ],
      "name": "getPairAddress",
      "outputs": [
        {
          "internalType": "address",
          "name": "pair",
          "type": "address"
        }
      ],
      "stateMutability": "view",
      "type": "function"
    },
    {
      "inputs": [],
      "name": "initialTokensForBondingCurveBalance",
      "outputs": [
        {
          "internalType": "uint256",
          "name": "",
          "type": "uint256"
        }
      ],
      "stateMutability": "view",
      "type": "function"
    },
    {
      "inputs": [],
      "name": "initialTokensForUniswapBalance",
      "outputs": [
        {
          "internalType": "uint256",
          "name": "",
          "type": "uint256"
        }
      ],
      "stateMutability": "view",
      "type": "function"
    },
    {
      "inputs": [],
      "name": "initialVirtualEtherBalance",
      "outputs": [
        {
          "internalType": "uint256",
          "name": "",
          "type": "uint256"
        }
      ],
      "stateMutability": "view",
      "type": "function"
    },
    {
      "inputs": [],
      "name": "owner",
      "outputs": [
        {
          "internalType": "address",
          "name": "",
          "type": "address"
        }
      ],
      "stateMutability": "view",
      "type": "function"
    },
    {
      "inputs": [],
      "name": "renounceOwnership",
      "outputs": [],
      "stateMutability": "nonpayable",
      "type": "function"
    },
    {
      "inputs": [
        {
          "internalType": "address",
          "name": "tokenAddress",
          "type": "address"
        }
      ],
      "name": "seedLiquidity",
      "outputs": [],
      "stateMutability": "nonpayable",
      "type": "function"
    },
    {
      "inputs": [
        {
          "internalType": "address",
          "name": "_signer",
          "type": "address"
        }
      ],
      "name": "setSigner",
      "outputs": [],
      "stateMutability": "nonpayable",
      "type": "function"
    },
    {
      "inputs": [
        {
          "internalType": "uint256",
          "name": "_initialVirtualEtherBalance",
          "type": "uint256"
        },
        {
          "internalType": "uint256",
          "name": "_initialTokensForUniswapBalance",
          "type": "uint256"
        },
        {
          "internalType": "uint256",
          "name": "_initialTokensForBondingCurveBalance",
          "type": "uint256"
        }
      ],
      "name": "setTokenInitializer",
      "outputs": [],
      "stateMutability": "nonpayable",
      "type": "function"
    },
    {
      "inputs": [
        {
          "internalType": "uint256",
          "name": "_tradingFeeBasisPoints",
          "type": "uint256"
        }
      ],
      "name": "setTradingFeeBasisPoints",
      "outputs": [],
      "stateMutability": "nonpayable",
      "type": "function"
    },
    {
      "inputs": [
        {
          "internalType": "address",
          "name": "",
          "type": "address"
        }
      ],
      "name": "signatureNonces",
      "outputs": [
        {
          "internalType": "uint256",
          "name": "",
          "type": "uint256"
        }
      ],
      "stateMutability": "view",
      "type": "function"
    },
    {
      "inputs": [],
      "name": "signer",
      "outputs": [
        {
          "internalType": "address",
          "name": "",
          "type": "address"
        }
      ],
      "stateMutability": "view",
      "type": "function"
    },
    {
      "inputs": [
        {
          "internalType": "address",
          "name": "tokenAddress",
          "type": "address"
        },
        {
          "internalType": "uint256",
          "name": "amountOutMin",
          "type": "uint256"
        }
      ],
      "name": "swapExactETHForTokens",
      "outputs": [],
      "stateMutability": "payable",
      "type": "function"
    },
    {
      "inputs": [
        {
          "internalType": "address",
          "name": "tokenAddress",
          "type": "address"
        },
        {
          "internalType": "uint256",
          "name": "amountIn",
          "type": "uint256"
        },
        {
          "internalType": "uint256",
          "name": "amountOutMin",
          "type": "uint256"
        }
      ],
      "name": "swapExactTokensForETH",
      "outputs": [],
      "stateMutability": "nonpayable",
      "type": "function"
    },
    {
      "inputs": [],
      "name": "tokenCreationEnabled",
      "outputs": [
        {
          "internalType": "bool",
          "name": "",
          "type": "bool"
        }
      ],
      "stateMutability": "view",
      "type": "function"
    },
    {
      "inputs": [
        {
          "internalType": "address",
          "name": "",
          "type": "address"
        }
      ],
      "name": "tokens",
      "outputs": [
        {
          "internalType": "uint256",
          "name": "etherBalance",
          "type": "uint256"
        },
        {
          "internalType": "uint256",
          "name": "virtualEtherBalance",
          "type": "uint256"
        },
        {
          "internalType": "uint256",
          "name": "tokensForUniswapBalance",
          "type": "uint256"
        },
        {
          "internalType": "uint256",
          "name": "tokensForBondingCurveBalance",
          "type": "uint256"
        }
      ],
      "stateMutability": "view",
      "type": "function"
    },
    {
      "inputs": [],
      "name": "tradingEnabled",
      "outputs": [
        {
          "internalType": "bool",
          "name": "",
          "type": "bool"
        }
      ],
      "stateMutability": "view",
      "type": "function"
    },
    {
      "inputs": [],
      "name": "tradingFeeBasisPoints",
      "outputs": [
        {
          "internalType": "uint256",
          "name": "",
          "type": "uint256"
        }
      ],
      "stateMutability": "view",
      "type": "function"
    },
    {
      "inputs": [
        {
          "internalType": "address",
          "name": "newOwner",
          "type": "address"
        }
      ],
      "name": "transferOwnership",
      "outputs": [],
      "stateMutability": "nonpayable",
      "type": "function"
    },
    {
      "inputs": [],
      "name": "uniswapV2Router02",
      "outputs": [
        {
          "internalType": "address",
          "name": "",
          "type": "address"
        }
      ],
      "stateMutability": "view",
      "type": "function"
    },
    {
      "inputs": [],
      "name": "withdrawEtherFee",
      "outputs": [],
      "stateMutability": "nonpayable",
      "type": "function"
    }
  ],
  "bytecode": "0x6101a034620002c057601f62004b8e38819003918201601f19168301916001600160401b03831184841017620002915780849261010094604052833981010312620002c0576200004f81620002e1565b602082015160408301516060840151936200006d60808201620002e1565b9460a08201519060e060c084015193015193604051956200008e87620002c5565b601087526f5061726c6179436f726553696d706c6560801b602088015260405196620000ba88620002c5565b60018852603160f81b60208901523315620002a75760008054336001600160a01b0319821681178355916001600160a01b03909116907f8be0079c531659141344cd1fd0a4f28419497f9722a3daafe3b4186f6b6457e09080a36200011f81620002f6565b610120526200012e88620004cd565b6101405260208151910120968760e0526020815191012080610100524660a052604051977f8b73c3c69bb8fe3d512ecc4cf759cc79239f7b179b0ffacaa9a75d522b39400f60208a0152604089015260608801524660808801523060a088015260a087528660c081011060018060401b0360c089011117620002915760c09788880160405287516020890120608052308952600160035560018060a01b031660018060a01b03196009541617600955600c55600d55600e55610160958652600b5561010161ffff19600f541617600f556007556008556101806000815261450893846200068685850139608051848401612325015260a0518484016123f1015283518484016122ed015260e05184840161237401526101005184840161239a01526101205184840161170201526101405184840161172e0152518383018181610bf90152818161141c015261157c0152518282018181610c7c0152611a99015201f35b634e487b7160e01b600052604160045260246000fd5b604051631e4fbdf760e01b815260006004820152602490fd5b600080fd5b604081019081106001600160401b038211176200029157604052565b51906001600160a01b0382168203620002c057565b805160209081811015620003935750601f8251116200033257808251920151908083106200032357501790565b82600019910360031b1b161790565b90604051809263305a27a960e01b82528060048301528251908160248401526000935b82851062000379575050604492506000838284010152601f80199101168101030190fd5b848101820151868601604401529381019385935062000355565b9192916001600160401b038111620002915760019182548381811c91168015620004c2575b82821014620004ac57601f811162000473575b5080601f83116001146200040b575081929394600092620003ff575b5050600019600383901b1c191690821b17905560ff90565b015190503880620003e7565b90601f198316958460005282600020926000905b8882106200045b575050838596971062000441575b505050811b01905560ff90565b015160001960f88460031b161c1916905538808062000434565b8087859682949686015181550195019301906200041f565b8360005283601f83600020920160051c820191601f850160051c015b8281106200049f575050620003cb565b600081550184906200048f565b634e487b7160e01b600052602260045260246000fd5b90607f1690620003b8565b8051602090818110156200055b5750601f825111620004fa57808251920151908083106200032357501790565b90604051809263305a27a960e01b82528060048301528251908160248401526000935b82851062000541575050604492506000838284010152601f80199101168101030190fd5b84810182015186860160440152938101938593506200051d565b906001600160401b0382116200029157600254926001938481811c911680156200067a575b83821014620004ac57601f811162000640575b5081601f8411600114620005d45750928293918392600094620005c8575b50501b916000199060031b1c19161760025560ff90565b015192503880620005b1565b919083601f198116600260005284600020946000905b888383106200062557505050106200060b575b505050811b0160025560ff90565b015160001960f88460031b161c19169055388080620005fd565b858701518855909601959485019487935090810190620005ea565b600260005284601f84600020920160051c820191601f860160051c015b8281106200066d57505062000593565b600081550185906200065d565b90607f16906200058056fe60808060405260043610156200001457600080fd5b600090813560e01c908163017c74851462001d0e57508063030858d81462001c9f578063054d50d41462001c805780630fbf34af1462001c3557806311ba17411462001c15578063238ac9331462001bea57806324b269071462001bca5780633644e5151462001ba35780634ada218b1462001b7e5780635855a25a1462001b5e5780636559ea841462001b0e5780636c19e7831462001ac857806370d5ae051462001a81578063715018a61462001a2357806373df616214620019ab578063789e221f146200180057806384b0196e14620016e957806385e694b614620015435780638cedc5ad146200149c5780638da5cb5b1462001473578063948f32c2146200144b578063a7c6402c1462001404578063b6340fdd14620013a4578063b79c48e514620011ff578063c038847a1462000f42578063da72f5581462000f22578063dbd8483d1462000ee5578063dfd41edf1462000ec5578063e0a6604a1462000b3e578063e48603391462000ade578063e5a238ec1462000abe578063f2fde38b1462000a2c5763f884834614620001ae57600080fd5b61014036600319011262000a29576004356001600160401b03811162000a2557620001de90369060040162001e89565b60249081356001600160401b03811162000a21576200020290369060040162001e89565b919060c435151560c4350362000a1c5760e4359260ff8416840362000a18576200022b620021b5565b60ff600f5460081c1615620009c55760443542811062000981576200025560843560643562002100565b34036200092f5760c435620008d0575b338852600660205260408820805491906000198314620008bd5782620003329260429260016200033c96019055620002fb8b620002ec620002ac600754928c369162001dea565b6020815191012093620002c1368b8d62001dea565b6020815191012060405195869460208601988960c4359560a435956084359560643595339462002124565b03601f19810183528262001dac565b51902062000308620022ea565b906040519161190160f01b83526002830152602282015220956101243590610104359088620021d9565b9092919262002260565b6009546001600160a01b03908116911603620008795762000363600d54600e549062002100565b9560a43515620007f0576040519384610fe38101106001600160401b03610fe387011117620007dd5791620003b4859492620003cb94610fe36200269388396080610fe38801818152019162002173565b91610fe3850183036020610fe38701015262002173565b856040610fe38401015260a4356060610fe384010152039085f08015620007d2576001600160a01b0316925b600c54600d54600e5490604051928360808101106001600160401b03608086011117620007bd576080840160409081528185526020808601928352818601938452606086019485526001600160a01b038a168b5260049052892093518455516001840155516002830155516003909101556200047560643562002654565b6040516342f34a5b60e11b81526001600160a01b03851660048201526020818581305afa908115620007b25786916200077c575b50600c54600d54600e546040805195865260208601939093529184015260608301526001600160a01b0390811660808301524292908516917f8363d4f3dbd2468bc6f2965f8525dfd3305f6cd2c0a35676659f26f7172c896a9060a090a460843562000519575b82600160035580f35b60c43515620007745730905b6001600160a01b0383168452600460205260408420600381015492906200054e84151562002418565b61271062000561600b546084356200245b565b04906003620005bb62000577846084356200246f565b966200058860028501548262002100565b90620005b36200059c865493848c62002574565b998a93620005ad84861115620024ca565b62002100565b85556200246f565b910155620005c98162002654565b60405163a9059cbb60e01b81526001600160a01b038316600482015260248101859052602081806044810103818a6001600160a01b038b165af18015620007695762000733575b50604080516084358152600060208201819052918101919091526060810185905242608082015260a08101919091526001600160a01b03918216918516907f98d6c26d2a45ccdcaebb252dfae1df7bdd536a97f9e2da939897ead8a79fce809060c090a360c43562000684575b5062000510565b6040519060408201908282106001600160401b038311176200071f575060409081528282523360208084018281526001600160a01b039687168089526005835284892095518655905160019590950180546001600160a01b031916959097169490941790955590519283529290917f4a7a35b0dec7c055adebbf3784e546ca41851273dbb1d5bd1abce216a5ea0a749190a33880806200067d565b634e487b7160e01b60009081526041600452fd5b620007599060203d60201162000761575b62000750818362001dac565b8101906200250d565b503862000610565b503d62000744565b6040513d89823e3d90fd5b339062000525565b620007a3915060203d602011620007aa575b6200079a818362001dac565b81019062002194565b38620004a9565b503d6200078e565b6040513d88823e3d90fd5b86634e487b7160e01b60005260416004526000fd5b6040513d86823e3d90fd5b634e487b7160e01b895260416004528689fd5b92919060405193610e5d93848601948686106001600160401b0387111762000866579389936200083960409462000848948a9998620036768b3960608952606089019162002173565b91868303602088015262002173565b920152039085f08015620007d2576001600160a01b031692620003f7565b634e487b7160e01b8b526041600452888bfd5b60405162461bcd60e51b815260206004820152601d818701527f5061726c6179436f72653a20696e76616c6964207369676e61747572650000006044820152606490fd5b634e487b7160e01b8a526011600452878afd5b608435620002655760405162461bcd60e51b815260206004820152602a818801527f5061726c6179436f72653a206d7573742062757920746f6b656e7320666f72206044820152690646576206c6f636b75760b41b6064820152608490fd5b60405162461bcd60e51b8152602060048201526025818801527f5061726c6179436f72653a20696e76616c69642065746865722066656520616e604482015264642062757960d81b6064820152608490fd5b60405162461bcd60e51b815260206004820152601f818801527f5061726c6179436f72653a20646561646c696e652068617320706173736564006044820152606490fd5b60405162461bcd60e51b8152602060048201526026818701527f5061726c6179436f72653a20746f6b656e206372656174696f6e2069732064696044820152651cd8589b195960d21b6064820152608490fd5b8680fd5b600080fd5b8480fd5b5080fd5b80fd5b503462000a2957602036600319011262000a295762000a4a62001d47565b62000a5462001eb9565b6001600160a01b0390811690811562000aa557600054826001600160601b0360a01b821617600055167f8be0079c531659141344cd1fd0a4f28419497f9722a3daafe3b4186f6b6457e0600080a380f35b604051631e4fbdf760e01b815260048101849052602490fd5b503462000a29578060031936011262000a29576020600a54604051908152f35b503462000a2957602036600319011262000a29576080906040906001600160a01b0362000b0a62001d47565b1681526004602052208054906001810154906003600282015491015491604051938452602084015260408301526060820152f35b503462000a295760208060031936011262000a255762000b5d62001d47565b62000b67620021b5565b6001600160a01b0390811680845260048352604084206003810180549094929190670de0b6b3a76400001062000e6857813b1562000e6457604051631d440e7f60e21b8152868160048183875af18015620007695762000e33575b5062000bea815495600262000bde60019889860154906200246f565b93015490549062002100565b60405163095ea7b360e01b81527f00000000000000000000000000000000000000000000000000000000000000006001600160a01b038116600483015260248201839052909185836044818c895af190811562000e2857879460609460c49362000e06575b50604051958694859363f305d71960e01b855289600486015260248501528c60448501528c6064850152817f00000000000000000000000000000000000000000000000000000000000000001660848501524260a4850152165af18015620007b25762000dd5575b50808552600582526040852092848454948562000d18575b505050600492507f4df28f875737f2c9ec404a2796a2876b03f6a058259e112d9b8128793fc98b8e8580a252816003604082208281558284820155826002820155015560035580f35b015460405163a9059cbb60e01b81529082166001600160a01b031660048201526024810194909452828460448189865af1938415620007b25760049462000db3575b5081865260058352817fe2fb971ef3a86a93f9bb2279459c03b1607cc585f73f677d48f08abb1e94ba0b84604089209388850154169354604051908152a380855260058252848460408220828155015538848162000ccf565b62000dcd90843d8611620007615762000750818362001dac565b503862000d5a565b606090813d811162000dfe575b62000dee818362001dac565b8101031262000a21573862000cb7565b503d62000de2565b62000e2090893d8b11620007615762000750818362001dac565b503862000c4f565b6040513d8b823e3d90fd5b6001600160401b03819792971162000e5057604052943862000bc2565b634e487b7160e01b82526041600452602482fd5b8580fd5b60405162461bcd60e51b815260048101849052602f60248201527f546f6b656e7320617265207374696c6c20617661696c61626c65206f6e20746860448201526e6520626f6e6469766520637572766560881b6064820152608490fd5b503462000a29578060031936011262000a29576020600b54604051908152f35b503462000a2957602036600319011262000a29576020906040906001600160a01b0362000f1162001d47565b168152600683522054604051908152f35b503462000a29578060031936011262000a29576020600d54604051908152f35b503462000a2957606036600319011262000a295762000f6062001d47565b60248035906044359262000f73620021b5565b62000f8360ff600f541662002527565b60018060a01b0316918285526020936004855260408620926003840162000fbe815462000fb281151562002418565b60028701549062002100565b9462000fce815480978762002574565b62000fdc858210156200247d565b61271062000fed600b54836200245b565b049662000ffb88836200246f565b958610620011b057856200100f916200246f565b6001830154116200116c576040516323b872dd60e01b81523360048201523085820152604481018790529089826064818e8d5af191821562001161576200105f926200113f575b5082546200246f565b90556200106e84825462002100565b90556200107b8462002654565b8680808085335af13d1562001139573d620010968162001dce565b90620010a6604051928362001dac565b815288883d92013e5b1562001104575060405194868652850152604084015283606084015242608084015260a08301527f98d6c26d2a45ccdcaebb252dfae1df7bdd536a97f9e2da939897ead8a79fce8060c03393a3600160035580f35b85600f6064926040519262461bcd60e51b845260048401528201526e151c985b9cd9995c8819985a5b1959608a1b6044820152fd5b620010af565b62001159908b3d8d11620007615762000750818362001dac565b503862001056565b6040513d8d823e3d90fd5b60405162461bcd60e51b8152600481018a9052601a818601527f496e73756666696369656e742065746865722062616c616e63650000000000006044820152606490fd5b60848a866040519162461bcd60e51b83526004830152808201527f496e73756666696369656e74206f757470757420616d6f756e742061667465726044820152632066656560e01b6064820152fd5b50604036600319011262000a29576200121762001d47565b62001221620021b5565b6200123160ff600f541662002527565b6001600160a01b03168082526004602052604082206003810180549291906200125c84151562002418565b620012cd61271062001271600b54346200245b565b04926200127f84346200246f565b956200129060028301548262002100565b91620012c5620012a4825494858b62002574565b988994620012b76024358710156200247d565b620005ad85871115620024ca565b90556200246f565b9055620012da8162002654565b60405163a9059cbb60e01b8152336004820152602481018490529060208260448188875af190811562001399577f98d6c26d2a45ccdcaebb252dfae1df7bdd536a97f9e2da939897ead8a79fce80926200136b9262001376575b506040519182913396429034859094939260a09260c083019683526000602084015260006040840152606083015260808201520152565b0390a3600160035580f35b620013919060203d8111620007615762000750818362001dac565b503862001334565b6040513d87823e3d90fd5b503462000a29578060031936011262000a2957620013c162001eb9565b7facb7eb3561615586819973bbf6a7ab857a798bcd561fc1b2b8486e5fe52a0e066020600f5460ff8082161516809160ff191617600f556040519015158152a180f35b503462000a29578060031936011262000a29576040517f00000000000000000000000000000000000000000000000000000000000000006001600160a01b03168152602090f35b503462000a29578060031936011262000a2957602060ff600f5460081c166040519015158152f35b503462000a29578060031936011262000a2957546040516001600160a01b039091168152602090f35b503462000a2957602036600319011262000a2957600435620014bd62001eb9565b6127108111620014cd57600b5580f35b60405162461bcd60e51b815260206004820152604260248201527f54726164696e672066656520626173697320706f696e7473206d75737420626560448201527f206c657373207468616e206f7220657175616c20746f20313030303028313030606482015261252960f01b608482015260a490fd5b503462000a295760208060031936011262000a25576200156262001d47565b6040516315ab88c960e31b815290926001600160a01b03917f00000000000000000000000000000000000000000000000000000000000000008316908481600481855afa908115620016b357948096600495968593620016c5575b508287168188161015620016be5791925b60405163c45a015560e01b815295869182905afa938415620016b35783946200168f575b5060405190868201906001600160601b03199384809260601b16835260601b1660348301526028825260608201938285106001600160401b038611176200167b57509060b591846040528151902060085493608083019660ff60f81b885260601b16608183015260958201520152605581526200166f8162001d5e565b51902016604051908152f35b634e487b7160e01b81526041600452602490fd5b620016ab919450863d8811620007aa576200079a818362001dac565b9238620015f2565b6040513d85823e3d90fd5b92620015ce565b620016e1919350823d8411620007aa576200079a818362001dac565b9138620015bd565b503462000a29578060031936011262000a2957620017277f000000000000000000000000000000000000000000000000000000000000000062001ee6565b90620017537f00000000000000000000000000000000000000000000000000000000000000006200201b565b9060405190602090818301938385106001600160401b0386111762000e505792828593620017b48896620017a598604052858552604051988998600f60f81b8a5260e0858b015260e08a019062001e47565b9088820360408a015262001e47565b924660608801523060808801528460a088015286840360c088015251928381520193925b828110620017e857505050500390f35b835185528695509381019392810192600101620017d8565b503462000a2957602090600319828136011262000a2557600435916001600160401b0380841162000a25576101208093853603011262000a2557604051928301838110828211176200199757604052836004013581811162001993576200186e906004369187010162001e26565b8352602484013590811162000a25576200188f906004369186010162001e26565b8285019081526044840135604084019081526001600160a01b03949192909160648101358681168103620019935760608601908152608086016084830135815260a087019060a4840135825260c088019260c4850135845261010460e08a019560e48101358752013595861515870362000a295750928a9592620002ec95926200195c98956101008c0195865262001926620022ea565b9c6007549c518a81519101209b518a81519101209751915116915192519351945195511515966040519b8c9a8b019d8e62002124565b519020604051908382019261190160f01b84526022830152604282015260428152620019888162001d5e565b519020604051908152f35b8280fd5b634e487b7160e01b83526041600452602483fd5b503462000a29578060031936011262000a2957620019c862001eb9565b80808080600a5481811562001a19575b3390f11562001a0d5780600a55807f9800e6f57aeb4360eaa72295a820a4293e1e66fbfcabcd8874ae141304a76deb8180a280f35b604051903d90823e3d90fd5b506108fc620019d8565b503462000a29578060031936011262000a295762001a4062001eb9565b80546001600160a01b03198116825581906001600160a01b03167f8be0079c531659141344cd1fd0a4f28419497f9722a3daafe3b4186f6b6457e08280a380f35b503462000a29578060031936011262000a29576040517f00000000000000000000000000000000000000000000000000000000000000006001600160a01b03168152602090f35b503462000a2957602036600319011262000a295762001ae662001d47565b62001af062001eb9565b60018060a01b03166001600160601b0360a01b600954161760095580f35b503462000a295762001b203662001d2c565b9162001b2b62001eb9565b80600c5581600d5582600e557f6b3cd5a375ea94d69f283ae5d03f7db36b8d11c870a1c836e313ce683f37c3e08480a480f35b503462000a29578060031936011262000a29576020600854604051908152f35b503462000a29578060031936011262000a2957602060ff600f54166040519015158152f35b503462000a29578060031936011262000a2957602062001bc2620022ea565b604051908152f35b503462000a29578060031936011262000a29576020600c54604051908152f35b503462000a29578060031936011262000a29576009546040516001600160a01b039091168152602090f35b503462000a29578060031936011262000a29576020600754604051908152f35b503462000a2957602036600319011262000a29576040906001600160a01b039082908262001c6262001d47565b16815260056020522090600182549201541682519182526020820152f35b503462000a2957602062001bc262001c983662001d2c565b9162002574565b503462000a29578060031936011262000a295762001cbc62001eb9565b7f628860e2faab29b2bacb8e17918261f9fa28c95aae7a5d165d0a412b5af4eb526020600f5461ff0060ff8260081c161560081b169061ff0019161780600f5560ff6040519160081c1615158152a180f35b90503462000a25578160031936011262000a2557602090600e548152f35b606090600319011262000a1c57600435906024359060443590565b600435906001600160a01b038216820362000a1c57565b608081019081106001600160401b0382111762001d7a57604052565b634e487b7160e01b600052604160045260246000fd5b604081019081106001600160401b0382111762001d7a57604052565b90601f801991011681019081106001600160401b0382111762001d7a57604052565b6001600160401b03811162001d7a57601f01601f191660200190565b92919262001df88262001dce565b9162001e08604051938462001dac565b82948184528183011162000a1c578281602093846000960137010152565b9080601f8301121562000a1c5781602062001e449335910162001dea565b90565b919082519283825260005b84811062001e74575050826000602080949584010152601f8019910116010190565b60208183018101518483018201520162001e52565b9181601f8401121562000a1c578235916001600160401b03831162000a1c576020838186019501011162000a1c57565b6000546001600160a01b0316330362001ece57565b60405163118cdaa760e01b8152336004820152602490fd5b60ff811462001f285760ff811690601f821162001f16576040519162001f0c8362001d90565b8252602082015290565b604051632cd44ac360e21b8152600490fd5b50604051600060019081549182811c9080841693841562002010575b602094858410811462001ffc578387528694939291811562001fda575060011462001f7a575b505062001e449250038262001dac565b60008181527fb10e2d527612073b26eecdfd717e6a320cf44b4afac2b0732d9fcbe2b7fa0cf695935091905b81831062001fc157505062001e449350820101388062001f6a565b8554878401850152948501948694509183019162001fa6565b91505062001e4494925060ff191682840152151560051b820101388062001f6a565b634e487b7160e01b85526022600452602485fd5b91607f169162001f44565b60ff8114620020415760ff811690601f821162001f16576040519162001f0c8362001d90565b50604051600060025490600182811c90808416938415620020f5575b602094858410811462001ffc578387528694939291811562001fda57506001146200209257505062001e449250038262001dac565b9093915060026000527f405787fa12a823e0f2b7631cc41b3ba8828b3321ca811111fa75cd3aa3bb5ace936000915b818310620020dc57505062001e449350820101388062001f6a565b85548784018501529485019486945091830191620020c1565b91607f16916200205d565b919082018092116200210e57565b634e487b7160e01b600052601160045260246000fd5b9895926101209895929b9a9794919b6101408b019c8b5260208b015260408a0152606089015260018060a01b0316608088015260a087015260c086015260e08501526101008401521515910152565b908060209392818452848401376000828201840152601f01601f1916010190565b9081602091031262000a1c57516001600160a01b038116810362000a1c5790565b600260035414620021c7576002600355565b604051633ee5aeb560e01b8152600490fd5b91907f7fffffffffffffffffffffffffffffff5d576e7357a4501ddfe92f46681b20a084116200225457926020929160ff608095604051948552168484015260408301526060820152600092839182805260015afa1562001a0d5780516001600160a01b038116156200224b57918190565b50809160019190565b50505060009160039190565b6004811015620022d4578062002274575050565b600181036200228f5760405163f645eedf60e01b8152600490fd5b60028103620022b15760405163fce698f760e01b815260048101839052602490fd5b600314620022bc5750565b602490604051906335e2f38360e21b82526004820152fd5b634e487b7160e01b600052602160045260246000fd5b307f00000000000000000000000000000000000000000000000000000000000000006001600160a01b03161480620023ee575b1562002347577f000000000000000000000000000000000000000000000000000000000000000090565b60405160208101907f8b73c3c69bb8fe3d512ecc4cf759cc79239f7b179b0ffacaa9a75d522b39400f82527f000000000000000000000000000000000000000000000000000000000000000060408201527f000000000000000000000000000000000000000000000000000000000000000060608201524660808201523060a082015260a0815260c081018181106001600160401b0382111762001d7a5760405251902090565b507f000000000000000000000000000000000000000000000000000000000000000046146200231d565b156200242057565b60405162461bcd60e51b8152602060048201526013602482015272546f6b656e206e6f7420617661696c61626c6560681b6044820152606490fd5b818102929181159184041417156200210e57565b919082039182116200210e57565b156200248557565b60405162461bcd60e51b815260206004820152601a60248201527f496e73756666696369656e74206f757470757420616d6f756e740000000000006044820152606490fd5b15620024d257565b60405162461bcd60e51b8152602060048201526013602482015272426f6e64696e6720637572766520656d70747960681b6044820152606490fd5b9081602091031262000a1c5751801515810362000a1c5790565b156200252f57565b60405162461bcd60e51b815260206004820152601f60248201527f5061726c6179436f72653a2074726164696e672069732064697361626c6564006044820152606490fd5b91909180156200260f578215158062002605575b15620025c7576200259e620025a592826200245b565b9262002100565b908115620025b1570490565b634e487b7160e01b600052601260045260246000fd5b60405162461bcd60e51b8152602060048201526016602482015275496e73756666696369656e74206c697175696469747960501b6044820152606490fd5b5081151562002588565b60405162461bcd60e51b815260206004820152601960248201527f496e73756666696369656e7420696e70757420616d6f756e74000000000000006044820152606490fd5b60207f6a7256a44ade026aa52c01b43d2efa1824c2c109620a2a91c3715f61aaac135e916200268681600a5462002100565b600a55604051908152a156fe60c060409080825234620005785762000fe380380380916200002282856200057d565b83398101608082820312620005785781516001600160401b03929083811162000578578262000053918301620005a1565b926020928383015190828211620005785762000071918401620005a1565b9360608684015193015191815181811162000478576003908154906001948583811c931680156200056d575b8984101462000557578190601f9384811162000501575b5089908483116001146200049a576000926200048e575b505060001982851b1c191690851b1782555b8751928311620004785760049788548581811c911680156200046d575b8982101462000458579081838695949311620003fe575b5088918411600114620003935760009362000387575b505082841b92600019911b1c19161785555b60ff1960055416176005553360805260065583516342f34a5b60e11b815230848201528281602481335afa9081156200037c5760009162000331575b5060a05233156200031a576200018e8160025462000618565b600255336000526000825283600020818154019055835181815260007fddf252ad1be2c89b69c2b068fc378daa952ba7f163c4a11628f55a4df523b3ef843393a360ff6005541662000210575b83516109a690816200063d823960805181818160d2015281816102cf01526107e3015260a0518181816103a901526107bb0152f35b60a0516001600160a01b039081163314620002a55760805116330315620001db5762000249903360005260008352846000205462000618565b60065410620002595780620001db565b608492519162461bcd60e51b8352820152602360248201527f5472616e736665722065786365656473206d61782077616c6c65742062616c616044820152626e636560e81b6064820152fd5b505060a492519162461bcd60e51b8352820152604460248201527f5472616e736665727320746f20556e697377617020563220706169722061726560448201527f206e6f7420616c6c6f776564207768656e206c696d6974732061726520656e61606482015263189b195960e21b6084820152fd5b835163ec442f0560e01b8152600081850152602490fd5b8381813d831162000374575b6200034981836200057d565b81010312620003705751906001600160a01b03821682036200036d57503862000175565b80fd5b5080fd5b503d6200033d565b85513d6000823e3d90fd5b01519150388062000127565b9190859450601f198416928a600052896000209360005b8b828210620003e75750508511620003cc575b50505050811b01855562000139565b01519060f884600019921b161c1916905538808080620003bd565b8385015187558998909601959384019301620003aa565b909192935089600052886000208380870160051c8201928b88106200044e575b9188918897969594930160051c01915b8281106200043e57505062000111565b600081558796508891016200042e565b925081926200041e565b60228a634e487b7160e01b6000525260246000fd5b90607f1690620000fa565b634e487b7160e01b600052604160045260246000fd5b015190503880620000cb565b90879350601f19831691866000528b6000209260005b8d828210620004ea5750508411620004d1575b505050811b018255620000dd565b015160001983871b60f8161c19169055388080620004c3565b8385015186558b97909501949384019301620004b0565b90915084600052896000208480850160051c8201928c86106200054d575b918991869594930160051c01915b8281106200053d575050620000b4565b600081558594508991016200052d565b925081926200051f565b634e487b7160e01b600052602260045260246000fd5b92607f16926200009d565b600080fd5b601f909101601f19168101906001600160401b038211908210176200047857604052565b919080601f8401121562000578578251906001600160401b038211620004785760405191602091620005dd601f8301601f19168401856200057d565b818452828287010111620005785760005b8181106200060457508260009394955001015290565b8581018301518482018401528201620005ee565b919082018092116200062657565b634e487b7160e01b600052601160045260246000fdfe608060408181526004918236101561001657600080fd5b600092833560e01c91826306fdde03146105d857508163095ea7b31461052e57816318160ddd1461050f57816323b872dd14610418578163313ce567146103fc5781633582ad23146103d857816349bd5a5e1461039457816370a082311461035d578163751039fc146102ba57816395d89b411461019b57508063a9059cbb1461016b578063bbde77c11461014d578063dd62ed3e146101055763f8c298c3146100bf57600080fd5b34610101578160031936011261010157517f00000000000000000000000000000000000000000000000000000000000000006001600160a01b03168152602090f35b5080fd5b5034610101578060031936011261010157806020926101226106f9565b61012a610714565b6001600160a01b0391821683526001865283832091168252845220549051908152f35b50346101015781600319360112610101576020906006549051908152f35b503461010157806003193601126101015760209061019461018a6106f9565b602435903361072a565b5160018152f35b838334610101578160031936011261010157805190828454600181811c908083169283156102b0575b602093848410811461029d57838852908115610281575060011461022c575b505050829003601f01601f191682019267ffffffffffffffff84118385101761021957508291826102159252826106b0565b0390f35b634e487b7160e01b815260418552602490fd5b8787529192508591837f8a35acfbc15ff81a39ae7d344fd709f28e8600b4aa8c65c6b64bfe7fe36bd19b5b83851061026d57505050508301018580806101e3565b805488860183015293019284908201610257565b60ff1916878501525050151560051b84010190508580806101e3565b634e487b7160e01b895260228a52602489fd5b91607f16916101c4565b919050346103595782600319360112610359577f00000000000000000000000000000000000000000000000000000000000000006001600160a01b0316330361030b578260ff196005541660055580f35b906020608492519162461bcd60e51b8352820152602260248201527f4f6e6c7920666163746f72792063616e2072656d6f766520616e74692d7768616044820152616c6560f01b6064820152fd5b8280fd5b5050346101015760203660031901126101015760209181906001600160a01b036103856106f9565b16815280845220549051908152f35b505034610101578160031936011261010157517f00000000000000000000000000000000000000000000000000000000000000006001600160a01b03168152602090f35b50503461010157816003193601126101015760209060ff6005541690519015158152f35b5050346101015781600319360112610101576020905160128152f35b9050823461050c57606036600319011261050c576104346106f9565b61043c610714565b916044359360018060a01b038316808352600160205286832033845260205286832054916000198303610478575b60208861019489898961072a565b8683106104e05781156104c95733156104b2575082526001602090815286832033845281529186902090859003905582906101948761046a565b8751634a1406b160e11b8152908101849052602490fd5b875163e602df0560e01b8152908101849052602490fd5b8751637dc7a0d960e11b8152339181019182526020820193909352604081018790528291506060010390fd5b80fd5b5050346101015781600319360112610101576020906002549051908152f35b9050346103595781600319360112610359576105486106f9565b6024359033156105c1576001600160a01b03169182156105aa57508083602095338152600187528181208582528752205582519081527f8c5be1e5ebec7d5bd14f71427d1e84f3dd0314c0f7b2291e5b200ac8c7c3b925843392a35160018152f35b8351634a1406b160e11b8152908101859052602490fd5b835163e602df0560e01b8152808401869052602490fd5b8490843461035957826003193601126103595782600354600181811c908083169283156106a6575b602093848410811461029d57838852908115610281575060011461065057505050829003601f01601f191682019267ffffffffffffffff84118385101761021957508291826102159252826106b0565b600387529192508591837fc2575a0e9e593c00f959f8c92f12db2869c3395a3b0502d05e2516446f71f85b5b83851061069257505050508301018580806101e3565b80548886018301529301928490820161067c565b91607f1691610600565b6020808252825181830181905290939260005b8281106106e557505060409293506000838284010152601f8019910116010190565b8181018601518482016040015285016106c3565b600435906001600160a01b038216820361070f57565b600080fd5b602435906001600160a01b038216820361070f57565b6001600160a01b038082169391928415610957578116801561093e57600091858352602095838752604095868520549086821061090d575090858492828752868a5203878620558185528685208681540190557fddf252ad1be2c89b69c2b068fc378daa952ba7f163c4a11628f55a4df523b3ef888851888152a360ff600554166107b8575b505050505050565b807f0000000000000000000000000000000000000000000000000000000000000000168214610897577f0000000000000000000000000000000000000000000000000000000000000000168103610810575b806107b0565b8152808452828120549182018092116108835750600654106108345780808061080a565b60849250519062461bcd60e51b82526004820152602360248201527f5472616e736665722065786365656473206d61782077616c6c65742062616c616044820152626e636560e81b6064820152fd5b634e487b7160e01b81526011600452602490fd5b60a48686519062461bcd60e51b82526004820152604460248201527f5472616e736665727320746f20556e697377617020563220706169722061726560448201527f206e6f7420616c6c6f776564207768656e206c696d6974732061726520656e61606482015263189b195960e21b6084820152fd5b875163391434e360e21b81526001600160a01b03919091166004820152602481019190915260448101869052606490fd5b60405163ec442f0560e01b815260006004820152602490fd5b604051634b637e8f60e11b815260006004820152602490fdfea26469706673582212208badaad85b1a9324c55e955e3a513cab7e48112f88f273daa6632f955e4583bf64736f6c6343000814003360c060409080825234620004f75762000e5d8038038091620000228285620004fc565b83398101606082820312620004f75781516001600160401b0390818111620004f757826200005291850162000520565b60209283850151838111620004f75786916200007091870162000520565b940151918151818111620003f7576003908154906001948583811c93168015620004ec575b88841014620004d6578190601f9384811162000480575b50889084831160011462000419576000926200040d575b505060001982851b1c191690851b1782555b8651928311620003f75760049687548581811c91168015620003ec575b88821014620003d75790818386959493116200037d575b5087918411600114620003125760009362000306575b505082841b92600019911b1c19161784555b60ff1960055416176005553360805283516342f34a5b60e11b815230848201528281602481335afa908115620002fb57600091620002b0575b5060a052331562000299576002548181018091116200028457600255336000526000825283600020818154019055835190815260007fddf252ad1be2c89b69c2b068fc378daa952ba7f163c4a11628f55a4df523b3ef833393a360ff60055416620001fe575b82516108c5908162000598823960805181818160c701526102a6015260a051818181610380015261078e0152f35b60a0516001600160a01b03163303620001d05760a492519162461bcd60e51b8352820152604460248201527f5472616e736665727320746f20556e697377617020563220706169722061726560448201527f206e6f7420616c6c6f776564207768656e206c696d6974732061726520656e61606482015263189b195960e21b6084820152fd5b601184634e487b7160e01b6000525260246000fd5b835163ec442f0560e01b8152600081850152602490fd5b8381813d8311620002f3575b620002c88183620004fc565b81010312620002ef5751906001600160a01b0382168203620002ec5750386200016a565b80fd5b5080fd5b503d620002bc565b85513d6000823e3d90fd5b0151915038806200011f565b9190859450601f1984169289600052886000209360005b8a8282106200036657505085116200034b575b50505050811b01845562000131565b01519060f884600019921b161c19169055388080806200033c565b838501518755899890960195938401930162000329565b909192935088600052876000208380870160051c8201928a8810620003cd575b9188918897969594930160051c01915b828110620003bd57505062000109565b60008155879650889101620003ad565b925081926200039d565b602289634e487b7160e01b6000525260246000fd5b90607f1690620000f2565b634e487b7160e01b600052604160045260246000fd5b015190503880620000c3565b90879350601f19831691866000528a6000209260005b8c82821062000469575050841162000450575b505050811b018255620000d5565b015160001983871b60f8161c1916905538808062000442565b8385015186558b979095019493840193016200042f565b90915084600052886000208480850160051c8201928b8610620004cc575b918991869594930160051c01915b828110620004bc575050620000ac565b60008155859450899101620004ac565b925081926200049e565b634e487b7160e01b600052602260045260246000fd5b92607f169262000095565b600080fd5b601f909101601f19168101906001600160401b03821190821017620003f757604052565b919080601f84011215620004f7578251906001600160401b038211620003f757604051916020916200055c601f8301601f1916840185620004fc565b818452828287010111620004f75760005b8181106200058357508260009394955001015290565b85810183015184820184015282016200056d56fe608060408181526004918236101561001657600080fd5b600092833560e01c91826306fdde03146105af57508163095ea7b31461050557816318160ddd146104e657816323b872dd146103ef578163313ce567146103d35781633582ad23146103af57816349bd5a5e1461036b57816370a0823114610334578163751039fc1461029157816395d89b411461017257508063a9059cbb14610142578063dd62ed3e146100fa5763f8c298c3146100b457600080fd5b346100f657816003193601126100f657517f00000000000000000000000000000000000000000000000000000000000000006001600160a01b03168152602090f35b5080fd5b50346100f657806003193601126100f657806020926101176106d0565b61011f6106eb565b6001600160a01b0391821683526001865283832091168252845220549051908152f35b50346100f657806003193601126100f65760209061016b6101616106d0565b6024359033610701565b5160018152f35b8383346100f657816003193601126100f657805190828454600181811c90808316928315610287575b6020938484108114610274578388529081156102585750600114610203575b505050829003601f01601f191682019267ffffffffffffffff8411838510176101f057508291826101ec925282610687565b0390f35b634e487b7160e01b815260418552602490fd5b8787529192508591837f8a35acfbc15ff81a39ae7d344fd709f28e8600b4aa8c65c6b64bfe7fe36bd19b5b83851061024457505050508301018580806101ba565b80548886018301529301928490820161022e565b60ff1916878501525050151560051b84010190508580806101ba565b634e487b7160e01b895260228a52602489fd5b91607f169161019b565b919050346103305782600319360112610330577f00000000000000000000000000000000000000000000000000000000000000006001600160a01b031633036102e2578260ff196005541660055580f35b906020608492519162461bcd60e51b8352820152602260248201527f4f6e6c7920666163746f72792063616e2072656d6f766520616e74692d7768616044820152616c6560f01b6064820152fd5b8280fd5b5050346100f65760203660031901126100f65760209181906001600160a01b0361035c6106d0565b16815280845220549051908152f35b5050346100f657816003193601126100f657517f00000000000000000000000000000000000000000000000000000000000000006001600160a01b03168152602090f35b5050346100f657816003193601126100f65760209060ff6005541690519015158152f35b5050346100f657816003193601126100f6576020905160128152f35b905082346104e35760603660031901126104e35761040b6106d0565b6104136106eb565b916044359360018060a01b03831680835260016020528683203384526020528683205491600019830361044f575b60208861016b898989610701565b8683106104b75781156104a05733156104895750825260016020908152868320338452815291869020908590039055829061016b87610441565b8751634a1406b160e11b8152908101849052602490fd5b875163e602df0560e01b8152908101849052602490fd5b8751637dc7a0d960e11b8152339181019182526020820193909352604081018790528291506060010390fd5b80fd5b5050346100f657816003193601126100f6576020906002549051908152f35b90503461033057816003193601126103305761051f6106d0565b602435903315610598576001600160a01b031691821561058157508083602095338152600187528181208582528752205582519081527f8c5be1e5ebec7d5bd14f71427d1e84f3dd0314c0f7b2291e5b200ac8c7c3b925843392a35160018152f35b8351634a1406b160e11b8152908101859052602490fd5b835163e602df0560e01b8152808401869052602490fd5b8490843461033057826003193601126103305782600354600181811c9080831692831561067d575b602093848410811461027457838852908115610258575060011461062757505050829003601f01601f191682019267ffffffffffffffff8411838510176101f057508291826101ec925282610687565b600387529192508591837fc2575a0e9e593c00f959f8c92f12db2869c3395a3b0502d05e2516446f71f85b5b83851061066957505050508301018580806101ba565b805488860183015293019284908201610653565b91607f16916105d7565b6020808252825181830181905290939260005b8281106106bc57505060409293506000838284010152601f8019910116010190565b81810186015184820160400152850161069a565b600435906001600160a01b03821682036106e657565b600080fd5b602435906001600160a01b03821682036106e657565b91906001600160a01b039081841690811561087657821692831561085d57600082815280602052604095868220549083821061082c575082878386956020948a987fddf252ad1be2c89b69c2b068fc378daa952ba7f163c4a11628f55a4df523b3ef97528286520382822055868152208181540190558751908152a360ff6005541661078c57505050565b7f000000000000000000000000000000000000000000000000000000000000000016146107b65750565b60a4905162461bcd60e51b815260206004820152604460248201527f5472616e736665727320746f20556e697377617020563220706169722061726560448201527f206e6f7420616c6c6f776564207768656e206c696d6974732061726520656e61606482015263189b195960e21b6084820152fd5b875163391434e360e21b81526001600160a01b03919091166004820152602481019190915260448101839052606490fd5b60405163ec442f0560e01b815260006004820152602490fd5b604051634b637e8f60e11b815260006004820152602490fdfea2646970667358221220fcf6b0403d1e0e34768523c86df3b7b44e6dd41a7243f74215d571520838dbb364736f6c63430008140033a2646970667358221220101e6189a4581df2e266efe9c682230e379519e40e91851a2f6e9094415560b764736f6c63430008140033",
  "linkReferences": {},
  "deployedLinkReferences": {}
}